:020000040800F2
:10000000902B002045010008914E0008ED480008A3
:10001000B54D0008891D0008CBA9000800000000AC
:100020000000000000000000000000002195000812
:10003000DD370008000000004156000851A000080C
:100040005F0100085F0100085F010008716E000891
:100050005F0100085F0100085F0100085F01000800
:100060005F0100085F0100085F0100085F010008F0
:100070005F0100085F0100085F0100085F010008E0
:100080005F0100085F0100085D0B00085F010008C8
:100090005F0100085F0100085F0100085F010008C0
:1000A0005F0100085F0100085F0100085F010008B0
:1000B00049A100085F0100085F0100085F01000816
:1000C0005F0100085F0100085F0100085F01000890
:1000D0005F01000809A600085F01000879A7000871
:1000E0005F0100085F0100085F0100085F01000870
:1000F0005F0100085F0100085F0100085F01000860
:100100005F0100085D8800085F0100085F010008CA
:100110005F0100085F01000829A20008EDA20008A5
:100120005F0100085F0100085F0100085F0100082F
:10013000DFF80CD000F0E8FC00480047ADE700080D
:10014000902B00200648804706480047FEE7FEE760
:10015000FEE7FEE7FEE7FEE7FEE7FEE7FEE7FEE777
:10016000D9A000083101000840EA01039B0703D031
:1001700009E008C9121F08C0042AFAD203E011F8E6
:10018000013B00F8013B521EF9D27047D2B201E0A8
:1001900000F8012B491EFBD270470022F6E710B58C
:1001A00013460A4604461946FFF7F0FF204610BDE5
:1001B000F0B480EA0102D40F4200B2EB410F02D248
:1001C0000246084611464A0042D0C30DDDB2C1F3D3
:1001D000C752AD1A202D35DAC1F3160141F40002E1
:1001E00004B15242C5F1200602FA06F12A41104438
:1001F000B3EBD05F23D0C4B1012DA0EBC35009DC19
:10020000F0BC4FF0004202EAC352DBB200F500003E
:1002100000F085BB400000F1807000EBC350A0F1FE
:10022000807040EAD170490009E0490841EAC07194
:10023000A0EBC35000F50000400800EBC350F0BC39
:1002400000F064BB6142012202EB4101001BF6E7B2
:10025000F0BC704781F00041AAE780F00040A7E7BA
:1002600080EA010210B502F00043400022D04A00AB
:100270001FD0010E01EB1261C0F35600C2F356020B
:1002800040F4000042F40002A0FB022000047F3989
:10029000140400D0401C50EA124001D44000491E12
:1002A000C2B20C0604EBD010401C4008802A02D0D9
:1002B00003E0002010BD20F00100002900DA00203A
:1002C000184310BD30B480EA010202F0004530F05E
:1002D000004221F0004013D090B1C30DD40DC2F301
:1002E0001601C0F31600E41A41F4000140F40002C4
:1002F0007D34914201D3641C00E04900002C02DAF5
:1003000030BC002070474FF400000023914201D31D
:10031000891A034340084FEA4101F7D151B1914294
:1003200002D14FF0004105E002D24FF0010101E09F
:100330006FF0010103EBC450284430BC00F0E6BA72
:100340002DE9FE4F804681EA0300C00F0C46009065
:1003500021F0004123F00045B8EB0200A94105D28D
:100360004046214690461C460B46024623F000407C
:10037000104347D0270DC7F30A00C3F30A51029078
:10038000401A019040286BDAC3F3130040F4801B3D
:100390000098924620B10023D2EB030A63EB0B0BCB
:1003A00001985946C0F14002504600F07EFA0646D8
:1003B0000D4650465946019A00F096FA10EB080097
:1003C0006141002487EA115284EAE7731A4340D05E
:1003D000009A62B3019A012A4FEA075215DC001B0A
:1003E00061EB02014FF0004202EA0752CDE9004200
:1003F000001C41F5801132462B4600F0CDFA03B0C7
:10040000BDE8F08F40462146F9E7001B61EB020191
:10041000001C41F5801300185B412018A2F500175D
:1004200047EB030140EAD570B6196D4111E06D0844
:100430004FEA360645EAC0754FEA0752001B61EBEA
:100440000201001C41F5801149084FEA30000019F3
:10045000514132462B4603B0BDE8F04F00F08DBA53
:100460000098012240000023D0EB020263EBE0730E
:10047000009821464FEAE074B8EB000061EB0401FC
:10048000E9E783F000435BE781F0004158E72DE99D
:10049000FE4F81EA030404F0004421F0004100947F
:1004A0004FF0000B23F0004350EA01045ED052EA03
:1004B00003045BD0C3F30A54C1F30A552C44A4F2DD
:1004C000F3340194A0FB0254C1F3130141F48011F1
:1004D000C3F3130343F4801301FB024400FB034EF8
:1004E000840A970A44EA815447EA8357A4FB0768C1
:1004F00002958D0A05FB07854FEA932C04FB0C54EB
:100500002705029D4FEA065847EA1637B5EB08055E
:100510006EEB070C870E920E47EA811742EA8312B0
:10052000A7FB0201B6EB0B0164EB00042B0D43EAC1
:100530000C335E1844EB1C50DA465146E7FB0201CF
:10054000C5F313044FEA0B3343EA14534FEA043262
:10055000019C43EA0603A4F10C040294009CCDE93B
:1005600000B400F019FA03B0BDE8F08F0020014696
:10057000F9E72DE9F04D81EA030404F0004B21F086
:10058000004514464FF0000A23F0004150EA0502EE
:1005900020D054EA01021DD0C5F30A570246C5F324
:1005A0001303C1F31300C1F30A5640F4801543F45A
:1005B0008013A7EB0608101BD64608F2FD3873EB34
:1005C000050002D308F1010801E092185B41B8F17F
:1005D000000F03DA00200146BDE8F08D00204FF443
:1005E0008011064684460EE0171B73EB050705D302
:1005F000121B63EB050306434CEA010C49084FEA62
:10060000300092185B4150EA0107EDD152EA030035
:1006100012D082EA040083EA0501084305D0101BCA
:10062000AB4106D20122002306E000224FF0004336
:1006300002E06FF0010253101AEB06004CEB085178
:1006400010EB0A0041EB0B01BDE8F04D00F095B94D
:10065000C10F80EAE0700844CA079623002100F029
:100660005EB996230022114600F059B90EB5C10FAC
:1006700080EAE0700844CA07002140F233438DE865
:100680000E000A460B4600F087F903B000BD0EB518
:1006900040F2334102910021CDE900110A460B4698
:1006A00000F07AF903B000BD00F0004220F00040F5
:1006B000C10DC0F3160040F400007F2901DA0020CC
:1006C0007047962903DCC1F19601C84001E09639D4
:1006D0008840002AF4D04042704720F00040C10D0D
:1006E000C0F3160040F400007F2901DA00207047B3
:1006F000962903DCC1F19601C840704796398840BD
:100700007047C1F30A5210B5C1F3130140F2FF3331
:1007100041F480119A4201DA002010BD40F23343C7
:100720009A42A2F2334203DC524200F0CDF810BDEF
:10073000904010BD00F0004230F000400AD0C10DE2
:1007400001F56071C0F3160042EA0151C20840078A
:1007500011437047002001467047000030B5041E69
:1007600071F1000404DB4FF00044404264EB0101EE
:10077000141E73F1000405DB1C464FF00043524287
:1007800063EB04038B4208BF824230BD30B5041EC8
:1007900071F1000404DB4FF00044404264EB0101BE
:1007A000141E73F1000405DB1C464FF00043524257
:1007B00063EB0403994208BF904230BD01F000434F
:1007C00030B421F0004150EA010206D00A0DA2F532
:1007D0006072C1F31301002A02DC30BC00207047B4
:1007E000440F44EAC104C100E01830BC00EBC25021
:1007F00000F08CB8002801DBC0F10040002901DBCB
:10080000C1F1004181427047002801DBC0F1004086
:10081000002901DBC1F100418842704730B50B4629
:10082000014600202022012409E021FA02F59D4220
:1008300005D303FA02F5491B04FA02F52844151EF4
:10084000A2F10102F1DC30BD2DE9F05F0546002088
:1008500092469B4688460646814640241BE0284631
:1008600041464746224600F02FF853465A46C01AE2
:10087000914110D311461846224600F016F82D1A61
:1008800067EB01084F4622460120002100F00DF8D9
:1008900017EB00094E41201EA4F10104DFDC48469D
:1008A00031462A464346BDE8F09F202A04DB203A21
:1008B00000FA02F1002070479140C2F1200320FAB3
:1008C00003F3194390407047202A04DB203A21FAB1
:1008D00002F00021704721FA02F3D040C2F1200259
:1008E0009140084319467047202A06DBCB17203A6F
:1008F00041FA02F043EAE07306E041FA02F3D04025
:10090000C2F1200291400843194670470029A8BF50
:100910007047401C490008BF20F00100704710B428
:10092000B0FA80FC00FA0CF050EA010404BF10BCDD
:10093000704749B1CCF1200421FA04F411FA0CF10A
:1009400018BF012121430843A3EB0C01CB1D4FEA43
:1009500000614FEA102042BF002010BC704700EB3E
:10096000C35010440029A4BF10BC7047401C49006C
:1009700008BF20F0010010BC704710B5141E73F1C1
:10098000000408DA401C41F1000192185B411A434F
:1009900001D120F0010010BD2DE9F04D92469B469B
:1009A00011B1B1FA81F202E0B0FA80F22032904641
:1009B000FFF77BFF04460F4640EA0A0041EA0B01BD
:1009C00053465A46084313D0114653EA010019D042
:1009D000C8F140025046FFF777FF05460E465046E5
:1009E00059464246FFF761FF084305D0012004E065
:1009F00020463946BDE8F08D0020054346EAE07602
:100A00002C4337430A986305E40AA0EB0800002250
:100A1000FD0A44EA47540A3002D500200146E9E7BE
:100A2000010510196941DDE9084500196941BDE872
:100A3000F04DA2E72DE9F04D00231A461B1A8A411A
:100A400003DB00200146BDE8F08DC1F30A52C1F37B
:100A5000130141F480154FF0000BD10702D10018AB
:100A60006D41521E0027044640F2FF11384601EB4B
:100A7000620A3E468046024600204FF48011FFF78E
:100A800023FFC2197141BB1846EB0100B4EB030C04
:100A900075EB000C04D3E41A65EB000517460E460F
:100AA000241908F101006D4180463428E3DDF9196D
:100AB00046EB0600091BA84103D24FF0FF32134654
:100AC00001E0002213461BEB070046EB0A51BDE88C
:100AD000F04DFFF752BFC1F30A52C1F3130140F2C8
:100AE000FF3341F480119A4202DA00200146704738
:100AF00040F233439A42A2F2334202DC5242FFF701
:100B0000E3BEFFF7D2BE0000064C074D06E0E068EA
:100B100040F0010394E8070098471034AC42F6D344
:100B2000FFF70AFB38A3030858A3030870B504466F
:100B30000025002604E000F0C3F90544701C86B2CD
:100B400041F288308642F6DBB5FBF0F0208070BDC4
:100B500010B500F0BDF800F033F810BD10B54FF43B
:100B600008710B4800F0EAF801280FD1084800F09E
:100B7000E1F8084908800848007840F00800064974
:100B800008704FF40871024800F091F810BD0000A1
:100B900000280140AC0000203500002008B51220DC
:100BA0008DF8000001208DF8010000208DF8020072
:100BB00001208DF80300684604F088F908BD0000A4
:100BC00000B585B0002000908DF804008DF8050078
:100BD0004FF4602002900020039001208DF8100057
:100BE0006946184800F0D2F801231A4619461548FC
:100BF00000F0F4F80121134800F05EF8114800F00D
:100C000049F900BF0F4800F0ABF80028FAD10D48B1
:100C100000F050F900BF0B4800F082F80028FAD12C
:100C2000FFF7BCFF0221074800F03EF801224FF415
:100C30000871044800F09EF80121024800F02FF9E5
:100C400005B000BD002801402DE9F04105464FF4F4
:100C5000C8760024002719E0322002F0E5FD00BF2D
:100C60000E48007800F008000C4908700028F7D002
:100C70000846007820F0080008700121084800F0BC
:100C80000EF9084800880444781C87B2B742E3DBB9
:100C9000B4FBF6F42C80BDE8F081000035000020A4
:100CA00000280140AC000020CA43026070470022C7
:100CB0000A12D3430360704721B1826842F00102F7
:100CC000826003E0826822F00102826070470000C7
:100CD00008B54FF4404005F02FFF0121032005F037
:100CE00037FF012148F2144005F052FF0F20ADF804
:100CF000000000208DF803006946074803F068FCF7
:100D00000220ADF8000000208DF80300694603487A
:100D100003F05EFC08BD0000001001400008014027
:100D2000014600208A6802F004020AB1012000E0B6
:100D3000002070470146C86C80B2704770B502460B
:100D40000020002300240B125568CEB205EA0604E9
:100D500015681D4015B10CB1012000E0002070BDE8
:100D6000014600208A6802F008020AB1012000E072
:100D70000020704710B50023CBB21AB144681C4361
:100D8000446002E044689C43446010BD30B50246B4
:100D90000020002350680F4C20400D790C6844EA75
:100DA00005242043506090680B4C2040D1E9025448
:100DB0002C434D7944EA450420439060D06A20F4E6
:100DC00070000C7C641EE4B2234340EA0350D062FE
:100DD00030BD0000FFFEF0FFFDF7F1FFF0B5044667
:100DE0000D4600200021092D11DDE068A5F10A065D
:100DF00006EB4607072606FA07F18843A5F10A061F
:100E000006EB460603FA06F10843E0600CE02069B1
:100E100005EB4507072606FA07F1884305EB45066B
:100E200003FA06F108432061072A0FDA606B561EA9
:100E300006EB86071F2606FA07F18843561E06EBC7
:100E4000860605FA06F10843606322E00D2A0FDAF0
:100E5000206BD61F06EB86071F2606FA07F188438C
:100E6000D61F06EB860605FA06F10843206310E05C
:100E7000E06AA2F10D0606EB86071F2606FA07F1C7
:100E80008843A2F10D0606EB860605FA06F1084333
:100E9000E062F0BD816841F008018160704721B1D6
:100EA000826842F4A002826003E0826822F4A00219
:100EB00082607047816841F00401816070470000E2
:100EC00070B500244FF400619D4803F017FC4FF407
:100ED00000619B4803F010FC2021994803F00CFCB2
:100EE000012002F0A1FC00BF00BF00BF00BF00BF97
:100EF00000BF00BF00BF00BF00BF00BF00BF00BFFA
:100F000000BF00BF00BF00BF00BF00BF00BF00BFE9
:100F100000BF00BF00BF00BF00BF00BF00BF00BFD9
:100F200000BF00BF00BF00BF00BF00BF00BF00BFC9
:100F300000BF00BF00BF2021814803F0DFFB00BFDE
:100F400000BF00BF00BF00BF00BF00BF00BF00BFA9
:100F500000BF00BF00BF00BF00BF00BF00BF00BF99
:100F600000BF00BF00BF00BF00BF00BF00BF00BF89
:100F700000BF00BF00BF00BF00BF00BF00BF00BF79
:100F800000BF00BF00BF00BF00BF00BF00BF012007
:100F900002F04AFC20216A4803F0AEFB00BF00BF0C
:100FA00000BF00BF00BF00BF00BF00BF00BF00BF49
:100FB00000BF00BF00BF00BF00BF00BF00BF00BF39
:100FC00000BF00BF00BF00BF00BF00BF00BF00BF29
:100FD00000BF00BF00BF00BF00BF00BF00BF00BF19
:100FE00000BF00BF00BF00BF00BF00BF012002F074
:100FF0001BFC2021524803F081FB00BF00BF00BF53
:1010000000BF00BF00BF00BF00BF00BF00BF00BFE8
:1010100000BF00BF00BF00BF00BF00BF00BF00BFD8
:1010200000BF00BF00BF00BF00BF00BF00BF00BFC8
:1010300000BF00BF00BF00BF00BF00BF00BF00BFB8
:1010400000BF00BF00BF00BF00BF012002F0ECFBEB
:1010500020213B4803F050FB00BF00BF00BF00BF92
:1010600000BF00BF00BF00BF00BF00BF00BF00BF88
:1010700000BF00BF00BF00BF00BF00BF00BF00BF78
:10108000012002F0D1FB002545E020212C4803F08F
:1010900035FB012002F0C8FB00BF00BF00BF00BF4E
:1010A00000BF00BF00BF00BF00BF00BF00BF00BF48
:1010B00000BF00BF00BF00BF00BF00BF00BF00BF38
:1010C00000BF00BF00BF00BF00BF00BF00BF00BF28
:1010D00000BF00BF00BF00BF00BF00BF00BF00BF18
:1010E00000BF00BF00BF00BF2021154803F004FB74
:1010F00000BF00BF00BF00BF00BF00BF4FF4805162
:101100000F4803F0F0FA40EA440084B2012002F0F4
:101110008BFB681CC5B20C2DB7DB4FF4006108488F
:1011200003F0ECFA2021064803F0E8FA1E2002F052
:101130007BFB2021024803F0DFFA204670BD00004F
:10114000001C014008B50121802005F021FD4FF46D
:101150000260ADF8000010208DF8030003208DF828
:1011600002006946094803F033FA4FF48050ADF8A5
:10117000000004208DF803006946044803F028FAB3
:101180004FF4C151014803F0B9FA08BD001C0140F9
:1011900010B54FF48041064803F0AEFA4FF47A7070
:1011A00009F006F84FF48041014803F0A7FA10BD9A
:1011B000001C014008B50121C02005F0E9FC4FF4F6
:1011C0008040ADF8000010208DF8030003208DF85A
:1011D000020069460C4803F0FBF94FF40040ADF8FB
:1011E000000010208DF8030003208DF802006946EE
:1011F000064803F0EDF94FF48041034803F07EFA0E
:1012000003F0A2F908BD0000001C014000180140D5
:1012100008B501460020009003480090009808445B
:1012200000900098008808BD006C004008B50022BE
:101230000092044A0092009A02440092009A1160BF
:1012400008BD0000006C004010B58AB000241C21CD
:1012500003A8FEF7A2FF00200190029003AB1A2220
:101260008821762000F00AFC044601AB0722E12128
:10127000762000F003FC04469DF80C009DF80D104C
:1012800040EA0120484908809DF80E009DF80F10A3
:1012900049B240EA0120444948809DF810009DF879
:1012A000111049B240EA01203F4988809DF81200A0
:1012B0009DF8131040EA01203B49C8809DF81400B6
:1012C0009DF8151049B240EA0120374908819DF880
:1012D00016009DF8171049B240EA012032494881B2
:1012E0009DF818009DF8191049B240EA01202E49D6
:1012F00088819DF81A009DF81B1049B240EA012030
:101300002949C8819DF81C009DF81D1049B240EA8A
:101310000120254908829DF81E009DF81F1049B242
:1013200040EA0120204948829DF820009DF82110C4
:1013300049B240EA01201C4988829DF822009DF8AC
:10134000231049B240EA01201749C8829DF82500C0
:1013500040B208769DF804009DF8051049B240EAB5
:101360000120114948839DF8060040B208779DF896
:10137000080000F00F009DF8071049B240EA011084
:101380000949C8839DF8090040B200019DF8081082
:1013900040EA2110044908849DF80A0040B281F80F
:1013A000220020460AB010BD4C27002070B5002452
:1013B00000250CE0D021762000F03CFB0546602D96
:1013C00000D107E0601C84B2012002F01EFAB4F5DF
:1013D0007A7FEFDB00BFB4F57A7F01D1012070BDC9
:1013E000024880F828500020F9E700004C27002030
:1013F0002DE9F04706464348406AA0F59633B4030A
:101400004048C08B01053F48B0F9200000FB03F5C0
:10141000A4EB010CACEB050C0CF580404FEAE07C32
:1014200000EB5C4C4FEAEC32DFF8D8C09CF922C0EC
:101430000CFB03F04FEAE07C00EB9C5C4FEAAC2431
:10144000DFF8C0C09CF91CC00CFB03F04FEAE07C45
:1014500000EB5C5C4FEAEC2101F5004C04FB0CF066
:101460004FEAE07C00EB9C5C4FEAAC2C0CF50015DD
:10147000DFF890C0BCF91AC00CFB05FC0CF500505D
:101480004FEAE07C00EB9C4C4FEAAC3402FB04F1E9
:1014900008464FEAE17901EB59494FEAE9398846B4
:1014A0004FEAE17A01EB5A4A4FEAEA3A09FB0AFCB1
:1014B0004FEAEC790CEB59694FEAE915DFF844C0C3
:1014C0009CF918C00CFB05F04FEAE07C00EB1C7C9B
:1014D000A1EB2C12002A01DA002000E0104602469F
:1014E000B2F1C85F02DD4FF0C85000E0104602467E
:1014F00010464FEAE27C02EB1C5C4FEA2C37384680
:10150000BDE8F0874C27002030B5044600BF00BF7F
:1015100000BF2F48406A4FF47A45C5EB6001881040
:101520004043C0122A4DB5F9105000FB05F328487E
:10153000B0F90E00484303EB40039810244DAD89E9
:1015400000EB0543881040434013214DB5F90A5084
:101550006843C5101E48B0F90800484305EB600019
:10156000811401F500401A4DED886843C113C4F59C
:101570008010A0EB233040F6354500FB05F2B2F1B8
:10158000004F06D219B15000B0FBF1F208E0002084
:1015900030BD19B1B2FBF1F0420001E00020F7E7E5
:1015A000D0084043400B0A4DB5F91650684301136B
:1015B0009008074DB5F9145068434313C818044DFB
:1015C000B5F91250284402EB20121046E0E7000063
:1015D0004C27002030B50146002200230020CC100B
:1015E0000E4D2D88A4EB45040C4DB5F902506C430B
:1015F000E2120A4C2488C4EB211464432413074DDF
:10160000B5F904506C43A313D418044D6C622C46F6
:10161000646A04EB84048034201230BD4C2700201F
:101620002DE9FC5F01240125012603274FF0050861
:101630004FF000094FF0000A600140EA850040EADF
:10164000070B4FEA481040EA890040EA0A0001907F
:10165000009600F0BBF8FFF7A9FE10B10120BDE82D
:10166000FC9FF2217620009A00F042FA5A46F421BB
:10167000762000F03DFAF5217620019A00F038FA44
:10168000FFF7E2FD0020EAE72DE9FF5F0446894607
:1016900092460020039002900190834601AA02A97D
:1016A00003A800F039F883460298FFF793FF0090F3
:1016B000FEF7DCFF07460022154BFEF75AFF0546F2
:1016C000FFF77CF8C9F800000398FFF71DFF0090B2
:1016D000FEF7DDFF054600220D4BFEF74AFF0746E9
:1016E000FFF76CF820600198FFF782FE0090FEF78C
:1016F000CEFF07460022074BFEF73BFF0546FFF7EC
:101700005DF8CAF80000584604B0BDE8F09F00003C
:1017100000005940000090402DE9FC4104460D4670
:10172000164600200090019000276B460822F72102
:10173000762000F0A3F907469DF8000000039DF80D
:10174000011040EA01109DF8021040EA11102060DB
:101750009DF8030000039DF8041040EA01109DF875
:10176000051040EA111028609DF807009DF806104A
:1017700040EA012030603846BDE8FC8110B5002009
:101780000F4908600F48006820F470400D49086058
:101790000846006840F44050086000200A49C1F83B
:1017A000AC01022002F040F8012005490860022047
:1017B00002F03AF800200449C1F8A80110BD000069
:1017C000A8812142040C01400080214208B501217A
:1017D000082005F0DDF94FF44060ADF8000010205E
:1017E0008DF8030003208DF802006946044802F0DA
:1017F000EFFE4FF44061024802F080FF08BD000098
:10180000000C014010B500200F4908600F48006827
:1018100020F470400D4908600846006840F44050CC
:10182000086001200A49C1F8AC01022001F0FCFF68
:10183000012005490860022001F0F6FF002004495C
:10184000C1F8A80110BD0000A8812142040C01408C
:101850000080214270B5054600241748006820F436
:101860007040154908600846006840F40040086070
:10187000002616E0002011490860022001F0D4FF84
:1018800001200F49C1F8A8016006040E0B487C38FE
:10189000006808B1601CC4B2012001F0C5FF701CD3
:1018A000C6B2082EE6DB15B9FFF7ACFF01E0FFF783
:1018B00065FF204670BD0000040C0140A881214254
:1018C0000080214270B504461848006820F470403A
:1018D000164908600846006840F44050086000203F
:1018E0001349086000251EE0E00920B101201049DD
:1018F000091D086003E000200D49091D086060060D
:10190000040E022001F090FF012009490860022026
:1019100001F08AFF00200749C1F8A801022001F068
:1019200083FF681CC5B2082DDEDB70BD040C0140CE
:10193000A88121420080214210B50F48006820F4A0
:1019400070400D4908600846006840F44050086047
:1019500001200A4908600A49C1F8A801042001F0E1
:1019600063FF002005490860042001F05DFF0020AE
:101970000349C1F8A80110BD040C0140AC8121420B
:101980000080214210B50F48006820F470400D49D6
:1019900008600846006840F44050086000200A498A
:1019A00008600A49C1F8AC01042001F03DFF0120A4
:1019B000054908600549C1F8AC01042001F034FF75
:1019C00010BD0000040C0140A8812142008021428A
:1019D00010B500241448006820F4704012490860D3
:1019E0000846006840F40040086001200F49086084
:1019F00001F01AFF01200E49C1F8A80101F014FFFF
:101A000007E0601CC4B2FA2C03DDFFF7BBFF012026
:101A100010BD0648803800680028F2D10349091F2C
:101A2000086000BFF4E70000040C0140AC812142D3
:101A30000080214270B504460D46FFF77DFF00216E
:101A400041EA4401C8B2FFF73DFFFFF7C1FF284656
:101A5000FFF738FFFFF7BCFFFFF76EFF012101EB37
:101A60004401C8B2FFF72EFFFFF7B2FF0020FFF7D7
:101A7000F1FE0646FFF786FF304670BD2DE9F041C6
:101A800006460F4614461D46FFF756FF002141EA61
:101A90004601C8B2FFF716FFFFF79AFF20B1FFF724
:101AA00071FF0120BDE8F0813846FFF70BFFFFF71B
:101AB0008FFFFFF741FF012101EB4601C8B2FFF79D
:101AC00001FFFFF785FF0DE0012C04D10020FFF797
:101AD000C1FE287003E00120FFF7BCFE2870601EE5
:101AE000C4B26D1C002CEFD1FFF74CFF0020D9E7EA
:101AF00070B504460D461646FFF71EFF002141EA69
:101B00004401C8B2FFF7DEFEFFF762FF18B1FFF72E
:101B100039FF012070BD2846FFF7D4FEFFF758FFBC
:101B20003046FFF7CFFEFFF753FF18B1FFF72AFF4C
:101B30000120EFE7FFF726FF0020EBE72DE9F04754
:101B4000002400250026A146604961480068FEF790
:101B50005BFE05D35F495E480068FEF74BFE22D26C
:101B60000A2001F03CFE5C4A5C495948FFF78CFDB5
:101B7000564957480068FEF747FE05D35549544873
:101B80000068FEF737FE0ED20126B146002003F0B2
:101B900073F853A20121022008F074F957A205211D
:101BA000042008F06FF95B494C480068FEF72CFEF2
:101BB00009D34A480068FEF7BDFD0746564A574B11
:101BC000FEF7CCFD27D20A2001F009FE424A434924
:101BD0003F48FFF759FD524940480068FEF714FEA0
:101BE00009D33E480068FEF7A5FD07464A4A4B4B1D
:101BF000FEF7B4FD0FD24FF001090125002003F0DC
:101C00003BF848A20121084608F03CF93BA2052117
:101C1000042008F037F94B492F480068FEF7F4FD1F
:101C200009D32D480068FEF785FD07463A4A3B4B2D
:101C3000FEF794FD26D20A2001F0D1FD264A27495D
:101C40002348FFF721FD404923480068FEF7DCFDEB
:101C500009D321480068FEF76DFD07462E4A2F4B39
:101C6000FEF77CFD0ED20124A146002003F004F80B
:101C700036A20121022008F005F920A20521042046
:101C800008F000F9012E10D1012C0ED1012D0CD13C
:101C9000002002F0F1FF34A20121022008F0F2F846
:101CA00016A20521042008F0EDF8B9F1010F0AD1C0
:101CB00007E034480078042803D1FF203149087038
:101CC00000E0F6E700BFBDE8F0870000008089442F
:101CD0008C0000200000FA438800002084000020CF
:101CE0005072657373757265206973206F75742007
:101CF0006F662072616E6765210000005072657327
:101D0000732052554E204B657920746F20526561C7
:101D10006479000000000C422D431CEBE2361A3FB0
:101D20000000204254656D706572617475726520A3
:101D30006973206F7574206F662072616E6765210C
:101D4000000000000000C6420000C84248756D69EE
:101D500064697479206973206F7574206F662072CE
:101D6000616E67652100000054687265652D696EBB
:101D70002D6F6E652073656E736F72206661756C72
:101D8000742100003400002000BFFEE708B50121E7
:101D9000080204F0FDFE10208DF8030003208DF8EA
:101DA00002001C20ADF800006946034802F010FC58
:101DB000002002F00FFE08BD0020014010B52048B1
:101DC000007801283AD10CE001201E4908700BF080
:101DD0004DFF42F2107001F018FDFF201A49087003
:101DE00010BD00200CF07AFC0028EDD017480088C8
:101DF000401C1649088002220A2114480AF0CDFB33
:101E0000002002F039FF12A20221012008F03AF866
:101E100009E00D480078042805D1FF200A49087020
:101E200000F03EF900E0F4E700BF00BF00200CF036
:101E300055FC0028FAD101200249087000BFCFE705
:101E40005700002000000020340000204400002043
:101E5000434F325F43414C5F544553543F000000B1
:101E60002DE9FC4101A8FEF7EFFE6846FEF75EFE95
:101E7000BDF80010694A1288881A002801DB014663
:101E800000E041420CB266480088FEF7EAFB0646D5
:101E9000BDF80410634A1288881AFEF7D9FB07467A
:101EA0003146FEF70FFA0546BDF80400B0F5967FFF
:101EB00007DBBDF80400B0F52F7F02DCB4F57A7FB4
:101EC0004ADDBDF80400B0F5967F04DBBDF80400E0
:101ED000B0F52F7F41DDB4F57A7F3EDD002002F0C2
:101EE000CBFE51A20121042007F0CCFF52A2022117
:101EF000042007F0C7FF54A1204603F045F806462A
:101F000032460121132007F0BDFF2846FEF712FCE0
:101F100006464F4A4F4BFEF739FC13D84EA12846D0
:101F200003F016F8064632460221132007F0AAFFF6
:101F30004BA20221172007F0A5FF4AA2062100208C
:101F400007F0A0FF07E04D480078042803D1FF20E8
:101F50004A49087000E0F6E75EE0BDF80400B0F51D
:101F6000967F04DBBDF80400B0F52F7F2FDD002045
:101F700002F082FE42A20121042007F083FF2846DE
:101F8000FEF7D8FB0646324A324BFEF7FFFB13D86A
:101F900031A1284602F0DCFF06463246012113201B
:101FA00007F070FF2EA20121172007F06BFF2DA272
:101FB0000621002007F066FF07E03048007804287B
:101FC00003D1FF202D49087000E0F6E724E0B4F5C6
:101FD0007A7F21DD002002F04FFE2DA20121042096
:101FE00007F050FF18A1204602F0CEFF0646324609
:101FF0000121132007F046FF1AA20621002007F056
:1020000041FF07E01D480078042803D1FF201B4949
:10201000087000E0F6E700BFBDE8FC813600002054
:102020003C00002040000020434F5F5A45524F20A3
:10203000206661756C742100434F325F5A45524FE0
:10204000206661756C742100253036640000000044
:102050008DEDB5A0F7C6B03E25322E3166000000EA
:102060002500000050726573732052554E204B6559
:102070007920746F2052656164790000340000207B
:10208000434F32205A65726F206661756C7421006F
:10209000434F205A65726F206661756C7421000091
:1020A0002DE9F0478EB04FF000080025002002F027
:1020B000E3FDB6A20121002007F0E4FEBAA204214C
:1020C000022007F0DFFEBAA20721052007F0DAFEA2
:1020D000BEA1C048008802F057FF064632460421E0
:1020E000092007F0CFFE212204210E2002F0FDFD81
:1020F0009F2002F0E4FD4FE0B74890F9000001286E
:1021000006D0052838D0062806D0072838D11AE08E
:10211000FF20B149087033E0FF20AF490870AD4897
:10212000008820B1AB480088401EAA490880A7A1BA
:10213000A848008802F028FF0646324604210920FC
:1021400007F0A0FE1CE0FF20A3490870A14800880A
:10215000B0F57A7F04D09F480088401C9D490880D4
:102160009AA19C48008802F00FFF064632460421DF
:10217000092007F087FE03E0FF209749087000BFA1
:1021800000BF95480078042806D1FF2092490870C6
:102190009C2002F094FD00E0AEE700BF002002F0BA
:1021A0006BFD8EA20621012007F06CFE914A924938
:1021B0009248FFF769FA91480068FEF7BBFA0646B5
:1021C00032460B468EA008F003FC8B480068FEF7F1
:1021D000B1FA064632460B468DA008F0F9FB04F032
:1021E000CBFB00242DE003F02DFA8DA20621162052
:1021F00007F048FE8BA1601C02F0C6FE0646324680
:102200000621192007F03EFE0DA90CA800F05CF98C
:1022100086480078012807D1BDF83430BDF8302059
:10222000611C83A008F0D4FB03F039F8BDF830003E
:10223000284485B2BDF8340040441FFA80F8601C81
:10224000C4B2032CCFDB84496B480068FDF7B0FFB4
:102250000646FEF76FFACDE904017F497F48006822
:10226000FDF7A6FF0646FEF765FACDE902016348D1
:102270000068FEF75FFA06460022794BFEF779F90F
:10228000CDE90001DDE90223FEF701F98146DDE930
:102290000423FEF76EF9CDE908014E480088FEF7E9
:1022A000F6F9CDE90601DDE90823FEF7F0F8CDE9FE
:1022B0000A01FEF726FA4749088008460088FEF71B
:1022C000E6F9684A684BCDE90801FEF7E0F80646F2
:1022D0000F46A8EB050188B2FEF7D9F932463B4616
:1022E000CDE90A01FEF745F98146FEF70AFA5F4992
:1022F00008804E480078012809D1364801885CA042
:1023000008F066FB5948018862A008F061FB0320D1
:1023100095FBF0F0634908800222062153480AF039
:102320003CF9022208215F480AF037F9002002F048
:10233000A3FC5DA20321022007F0A4FD5DA14B4890
:10234000008802F021FE0646324603210E2007F0E7
:1023500099FD5AA20421022007F094FD55A151488D
:10236000008802F011FE0646324604210E2007F0D6
:1023700089FD02F09DFE3C2001F06CF900F0DCF9D3
:10238000FEF706FF0EB0BDE8F087000070726573BF
:1023900073205550206F7220444E20746F20736557
:1023A0007420434F323A0000434F323A000000009D
:1023B00070726573732052554E2F53455420746FBD
:1023C00020636F6E74696E75650000002530366499
:1023D000000000004C0000203400002053616D70AC
:1023E0006C655F4964656E746966792E2E2E2E2E9B
:1023F0000000000088000020840000208C000020E5
:10240000C6F8D1B93D2566B0D9C5C10D0A00000096
:10241000CEC2B6C83D2566C9E3CACFB6C80D0A000C
:102420004E4F2E0025303164000000009000002047
:10243000B5DA2564B4CE434F32C1E3B5E3B5E7C6A0
:10244000BD3D25642C434F32D1F9C6F8B5E7C6BD72
:102450003D25640D0A0000000080884374000020C0
:1024600000AA8F40B81E85EB51B89E3F3E00002069
:10247000BAA3B0CED0A3D5FDBAF3B1EAB6A8C6F8D8
:10248000D6CAC1BFC5A8B6C8282A313030293A25D6
:10249000640D0A00434F325F436F6566663D2564F5
:1024A0000D0A000040000020434F325F436F656615
:1024B000663A00002530346400000000434F325F6C
:1024C0005A45524F3A00000070B505460C4602F0DE
:1024D000EFFD3C2001F0BEF800F02EF91E2001F0C7
:1024E000B9F82846FEF7B0FB032002F041F906A236
:1024F0000621012007F0C6FC1E2001F0ABF82046A3
:10250000FEF7A2FB70BD000053616D706C655F4902
:1025100064656E746966792E2E2E2E2E00000000E2
:1025200000BF4FF0C040407800F008000028F8D00D
:102530007047000010B5062001F0CEF9012001F02F
:102540004EF940F22B11002002F036FC00BF802132
:10255000134802F0C8F80028F9D002F04FFC06201A
:1025600001F07EF9012001F03AF9012001F0B4F9FF
:10257000012001F034F940F22B11012002F01CFC83
:1025800000BF4021064802F0AEF80028F9D002F062
:1025900035FC012001F064F9012001F020F910BDA3
:1025A0000020014010B5052001F096F9012001F04E
:1025B00016F940F22B11002002F0FEFB00BF802133
:1025C000134802F090F80028F9D002F017FC05201B
:1025D00001F046F9012001F002F9012001F07CF937
:1025E000012001F0FCF840F22B11012002F0E4FB85
:1025F00000BF4021064802F076F80028F9D002F02A
:10260000FDFB012001F02CF9012001F0E8F810BDDC
:102610000020014010B54FF4FB60384948610520A7
:1026200008610C20C8600E2088601C2048601720BC
:10263000086004F0C3FB314807F08BFF40F65520DB
:102640002F4908804FF4C8702E4908802E49088011
:102650002E49088002202E4908804FF4FA702D4937
:10266000088064202C49088080002C4908800020C4
:102670002B4908804FF48C702A49088041202A4950
:1026800008800020294908708720294908702820DF
:102690002849088002220021194809F07EFF022201
:1026A00011461B4809F079FF02220421154809F060
:1026B00074FF02220621184809F06FFF0222082148
:1026C000144809F06AFF02220A21154809F065FF43
:1026D00002220E21154809F060FF02221021114844
:1026E00009F05BFF02221421114809F056FF022273
:1026F0001221104809F051FF10BD000064020020B3
:10270000360000203A000020460000204A00002049
:1027100038000020400000203E0000204C00002037
:102720004400002078000020700000209A00002063
:10273000990000209200002010B501F005FF022052
:1027400001F08EF8012001F04AF8072001F088F826
:10275000012001F044F810BD70B500254FF480341D
:1027600000E0641E24B1802006F058F80028F8D05C
:1027700014B90325284670BD40F2FF5006F006F854
:102780002846F8E7014600BF0748406B00F04500C7
:102790000028F9D040F2FF50034A90631046406988
:1027A00008221040C0B270470080014070B500257B
:1027B0001048446B01E00F48446B04F045000028CA
:1027C000F9D004F0040028B10325042005F0DEFF51
:1027D000284670BD04F0010028B10125012005F054
:1027E000D5FF2846F5E740F2FF5005F0CFFF284619
:1027F000EFE700000080014070B500250B48446BF6
:1028000001E00A48446B04F045000028F9D004F0C8
:10281000040028B10325042005F0B8FF284670BD48
:1028200040F2FF5005F0B2FF2846F8E70080014073
:102830002DE9F04106460F464FF000082248456B4F
:1028400001E02148456B05F045000028F9D005F06E
:10285000040038B14FF00308042005F097FF40460C
:10286000BDE8F08105F0010030B14FF00108012012
:1028700005F08CFF4046F3E705F0CAFFB04203D0F5
:102880004FF010084046EBE740F2FF5005F07EFFA6
:10289000002005F0D7FF044604F4604018B9200C6E
:1028A00038804046DCE704F4005008B11320D7E735
:1028B00004F4804008B11020D2E704F4004008B1CD
:1028C0000F20CDE74046CBE70080014070B50026E1
:1028D0004FF480350F48446B02E06D1E0D48446B89
:1028E00004F0450008B9002DF7D115B104F004003B
:1028F00028B10326042005F049FF304670BD04F0DE
:10290000400028B10026402005F040FF3046F5E7A2
:102910003046F3E7008001402DE9F04FA1B00020E0
:1029200017904FF4FA7610900024FB4800780128A5
:1029300070D10EE00120F94908700BF097F942F2CE
:10294000107000F062FFFF20F549087021B0BDE86B
:10295000F08F00200BF0C2FE0028EBD001200BF01E
:10296000BDFE0028E6D002200BF0B8FE0028E1D022
:1029700003200BF0B3FE0028DCD0EA480088401C9E
:10298000E849088002220A21E64809F006FE0AF01A
:1029900075FC50E0E24890F90000012806D00528B7
:1029A00039D0062806D0072839D11AE0FF20DC49A3
:1029B000087034E0FF20DA490870DB48008820B155
:1029C000D9480088401ED8490880D8A1D648008838
:1029D00002F0DAFA07463A4603210A2007F052FAD3
:1029E0001DE0FF20CE490870CF480088B0F57A7FFF
:1029F00004D0CD480088401CCB490880CBA1CA48F0
:102A0000008802F0C1FA07463A4603210A2007F07F
:102A100039FA04E0F0E3FF20C149087000BF00BFAD
:102A2000BF480078042806D1FF20BD4908709C20CB
:102A300002F045F900E0ADE700BF002002F01CF90C
:102A4000BCA20121002007F01DFAC3A2032102202D
:102A500007F018FAC3A20721052007F013FAC8A14E
:102A6000304602F091FA07463A4603210E2007F05D
:102A700009FA9F2002F023F921220321112002F0FC
:102A800034F946E0A64890F90000012806D0052850
:102A90002CD0062806D007282CD114E0FF20A0490E
:102AA000087027E0FF209E4908700EB1701E86B2A4
:102AB000B3A1304602F068FA07463A4603210E20D9
:102AC00007F0E0F916E0FF2095490870B6F57A7F27
:102AD00001D0701C86B2AAA1304602F055FA074612
:102AE0003A4603210E2007F0CDF903E0FF208C4980
:102AF000087000BF00BF8A480078042809D1FF2071
:102B0000874908709C2002F0DAF801208349087098
:102B100000E0B7E700BF9C480078012808D13146A3
:102B20009AA007F055FF804801889CA007F050FF4D
:102B3000002002F0A1F89EA20121084607F0A2F9A8
:102B40009FA20321012007F09DF9A3A203211420D5
:102B500007F098F9A34AA449A448FEF795FDA348B5
:102B60000068FDF7E7FD02460B46CDE90C014FF08A
:102B700000409F49FDF7FDFC0746FDF7C2FD9D495A
:102B8000088081480078012818D198480068FDF72E
:102B9000D1FD07463A460B4697A007F019FF924829
:102BA0000068FDF7C7FD07463A460B4696A007F0BA
:102BB0000FFF9048018898A007F00AFFC82000F096
:102BC000EBFD002490E2002002F056F897A20121CC
:102BD000122007F057F976A20121084607F052F9B2
:102BE00093A20321012007F04DF97BA203211420B9
:102BF00007F048F994A1601C02F0C6F907463A466E
:102C00000121152007F03EF902F01CFD0EA90FA8C6
:102C1000FFF75AFC5C480078012806D1BDF838203F
:102C2000BDF83C108AA007F0D3FE91480088FDF75C
:102C300018FD0746BDF83810BDF83C20881AFDF78E
:102C400007FD80463946FDF73DFB14A941F82400F5
:102C50004D48007801280AD151F82400FDF76AFD9B
:102C600007463A460B46214682A007F0B1FE874947
:102C700087480068FDF79CFA0746FDF75BFDCDE944
:102C80000A01824958480068FDF792FA0746FDF7A5
:102C900051FDCDE9060114A951F82400FDF74AFDC4
:102CA000CDE9020153480088FDF7F1FC0746794A57
:102CB000794BFDF7ECFBCDE90001DDE90223FDF7DF
:102CC000E6FBCDE90401DDE90623FDF7E0FBCDE9F4
:102CD0000801DDE90A23FDF74CFCCDE90C01FDF705
:102CE0006DFD11A941F824002748007801280AD178
:102CF00051F82400FDF71EFD07463A460B462146D3
:102D000066A007F065FE11A850F824101098FDF792
:102D10004FFA10900025CFE057000020000000205F
:102D200034000020440000204A0000202530366492
:102D3000000000007072657373205550206F722080
:102D4000444E20746F2073657420415F434F325F9F
:102D5000434F4E433A000000415F434F325F434FC1
:102D60004E433A0070726573732052554E2F53458F
:102D70005420746F20636F6E74696E756500000077
:102D800025303464000000009000002041434F32A1
:102D9000C5A8B6C83D25640D0A000000B1EAD7BC3D
:102DA000636FC5A8B6C8B2EE3D25640D0A000000E9
:102DB00043757276655F54657374696E673A000097
:102DC00047617320436F6C6C656374696F6E2E2E60
:102DD0002E2E2E20000000002852554E4E494E4700
:102DE0002900000088000020840000208C000020C2
:102DF000825363416E000020C6F8D1B93D2566B00C
:102E0000D9C5C10D0A000000CEC2B6C83D2566C9AD
:102E1000E3CACFB6C80D0A00C6F8D1B9D0DED5FDD9
:102E2000CFB5CAFD3D25640D0A0000004E4F2E00AF
:102E3000535445502831292E2E2E2E2E2E2E2E2E36
:102E40002E2E2E2E2E200000253031640000000092
:102E5000434F32C1E3B5E3B5E7C6BD3D25642C431E
:102E60004F32D1F9C6F8B5E7C6BD3D25640D0A005D
:102E70003E000020B5DA2564B4CEB2E2CAD4415F88
:102E8000434F325F4D563D25660D0A000080884352
:102E9000740000202D431CEBE2361A3FB5DA25649E
:102EA000B4CE415F434F325F56563D25660D0A0052
:102EB00000F03AFC681CC5B2032DF9DB02F0C2FB3E
:102EC00002F0EDF9002503E000F0F6FB681CC5B246
:102ED000032DF9DBC82000F0BDFB02F0E9F9F7A2F1
:102EE0000321142006F0CEFFF7A20421012006F0F2
:102EF000C9FFAFF21C120421142006F0C3FF20A862
:102F0000FDF714FEF6480078012804D1BDF88010C2
:102F1000F4A007F05DFD002503E0FFF70BFB681C44
:102F2000C5B2022DF9DBE5A20421142006F0AAFFA8
:102F3000F1A20521012006F0A5FFAFF264120521E0
:102F4000142006F09FFF1E2000F084FB1DA8FDF753
:102F5000EDFDE3480078012804D1BDF87410ECA021
:102F600007F036FDD5A20521142006F08BFFECA258
:102F70000621012006F086FFAFF2A41206211420DC
:102F800006F080FF02F094F91FA8FDF7CFFDD448AA
:102F90000078012804D1BDF87C10E7A007F018FDE7
:102FA000BDF87C10BDF88020881A002801DB01469E
:102FB00000E041420A2912DD002001F05DFEE3A29B
:102FC00003210A2006F05EFFE3A20621002006F09E
:102FD00059FFE8A20721002006F054FF96E20025E1
:102FE00003E0FFF7DFFA681CC5B2022DF9DB1E20F3
:102FF00000F030FB1EA8FDF799FDB94800780128C4
:1030000004D1BDF87810DDA007F0E2FCABA20621E8
:10301000142006F037FFBDF87810BDF87C20881A20
:10302000FDF716FB1B901B98FDF784FB0746D84A5B
:10303000D84BFDF793FB01D200201B90BDF8741014
:10304000BDF88020881AFDF703FB1C90BDF87810AE
:10305000BDF87420881AFDF7FBFA18A941F824007E
:1030600018A850F824101798FDF7A2F817909C485C
:10307000007801280BD118A951F82400FDF75AFB5C
:1030800007463A460B46611CC3A007F0A1FC022C80
:1030900028DA02F0FBF8FEF77BF8002001F0ECFDE7
:1030A000C2A20621002006F0EDFE00BF02200BF0B8
:1030B00015FB0028FAD103200BF010FB0028F5D1F6
:1030C00001F0DAFDC0A20621002006F0DBFE00BF01
:1030D00002200BF003FB0028FAD003200BF0FEFACD
:1030E0000028F5D0601CC4B2032CFFF66CAD33464B
:1030F0000022032111A806F0DBFE0746B949FDF7BF
:10310000AFF8824676480078012808D15046FDF78E
:1031100011FB07463A460B46B3A007F059FC504650
:10312000FDF708FB07460022B44BFDF72FFB1DD22D
:10313000002001F0A1FDB2A203210A2006F0A2FEA8
:10314000B2A20521022006F09DFE5046FDF7C5FA09
:103150001FFA80F8AFF2D831404601F015FF07465C
:103160003A460521112006F08DFECFE101231A46D3
:10317000032118A806F09CFE9A490D90FDF770F8FF
:103180008046FDF7AAFA87B23846FDF76AFA834609
:1031900053480078012808D15846FDF7CBFA074676
:1031A0003A460B469DA007F013FC5846FDF7C2FABD
:1031B000074600229E4BFDF7E9FA1ED2002001F0DF
:1031C0005BFD9CA203210A2006F05CFE9CA2052167
:1031D000022006F057FE5846FDF77FFA1FFA80F8E6
:1031E000AFF26441404601F0CFFE07463A46052162
:1031F000112006F047FE89E1A2E195480168954853
:10320000FCF7D6FF0746FDF795FACDE90A0192488B
:1032100001689048FCF7CCFF0746FDF78BFACDE933
:1032200006018E480088FDF732FACDE902018C488C
:103230000088FDF72CFA074600228A4BFDF727F994
:10324000CDE90001DDE90223FDF793F9CDE90401A1
:10325000DDE90623FDF71BF9CDE90801DDE90A23C5
:10326000FDF787F9CDE90C01FDF74BFA1FFA80F95C
:103270001B480078012803D149467BA007F0A8FB32
:1032800080491098FDF71EF84FF07E510C90FCF726
:10329000E4FF80464846FDF7E4F941460D90FDF70E
:1032A00011F80746FDF719FA1FFA80F90C48007863
:1032B000012801D14946E7E0E9E000002820204547
:1032C0004E44202029000000535445502832292E16
:1032D0002E2E2E2E2E2E2E2E2E2E2E2E2E20000078
:1032E00090000020B5D7C6F8B5C4C1E3B5E3D6B5A4
:1032F0003D25640D0A000000535445502833292E03
:103300002E2E2E2E2E2E2E2E2E2E2E2E2E20000047
:10331000B5D7C6F8B5E7C6BDD6B53D25640D0A00DC
:10332000535445502834292E2E2E2E2E2E2E2E2E3E
:103330002E2E2E2E2E200000D1F9C6F8B5C4C1E3E2
:10334000B5E3D6B53D25640D0A0000005A45524F3D
:103350005F4661756C74210052656D6F7665206102
:103360006C6C20626167732C72657475726E207468
:103370006F2000005265616479210000D1F9C6F820
:10338000B5C4B5E7C6BDD6B53D25640D0A0000003D
:10339000F168E388B5F8E43EB5DA2564B4CEB5E764
:1033A000C6BDB2EE3D25660D0A00000052656D6F88
:1033B0007665207468697264202620666F75727461
:1033C000682C6E6578740000506C756720696E20FB
:1033D0007468697264202620666F757274682C6E3A
:1033E000657874000000C842434F32D7BCC8B7B6F6
:1033F000C8CEAAA3BA25660D0A000000000010403E
:10340000434F32204641554C54000000434F325F39
:1034100041636375726163793D000000434FB5E716
:10342000C6BDBEABC3DCB6C8A3BA25660D0A000094
:103430000000244044636F204661756C74000000F6
:1034400044434F5F507265636973696F6E3D00005E
:103450008400002000808843740000206E0000205B
:103460004A0000200088C3404D2F56D0CECABD432D
:103470004FB1EAD7BCC6F8C5A8B6C8B2EE3D2564C0
:103480000D0A00000000964336A007F0A1FA179835
:10349000FDF750F9CDE90A0142F2107109FB01F084
:1034A000FDF7E4F80746384A384BFCF7F0FFCDE962
:1034B0000801DDE90A23FDF75CF8CDE90C01FDF711
:1034C00020F93349088002220421314809F065F8C7
:1034D00030480078012804D12D4801882EA007F03B
:1034E00077FA002001F0C8FB2EA20321022006F08B
:1034F000C9FCAFF274712648008801F045FD07460B
:103500003A460321072006F0BDFC00BF01F0BEFED5
:10351000FDF73EFE00BF00200BF0E0F80028FAD1D6
:1035200001200BF0DBF80028F5D102200BF0D6F8D3
:103530000028F0D103200BF0D1F80028EBD107E0F0
:1035400001201A49087003F005FD00201749087092
:10355000012017490870FF201649087000BFFFF7C7
:10356000F5B90000CEFCCAD5D0A3D5FD4D2F56D05D
:10357000CECABD434FB1EAD7BCC6F8C5A8B6C8B2DB
:10358000EE3D25640D0A0000B81E85EB51B89E3F44
:103590003A00002090000020525F58423D25640D03
:1035A0000A000000585F423A000000005800002066
:1035B000000000203400002000F0805111B10349C8
:1035C000086001E0024948607047000004040240BE
:1035D0000000024021B1026842F00102026004E0F2
:1035E00002684FF6FE731A400260704701460020E1
:1035F000002201F0805313B1054B1A6801E0054B1E
:103600001A6802EA01030BB1012000E000207047B4
:10361000000402400000024010B50022026847F694
:10362000F0739A430C6A8B6823430C6923434C69FB
:1036300023438C692343CC6923434C6A23438C6A1C
:1036400023431A430260CB6843600B6883604B6876
:10365000C36010BD70B5044611A20721172006F003
:1036600011FC1148048011A1008801F08DFC054671
:103670002A460721182006F005FC01210D4806F016
:103680008CFE07E00848008820B90021094806F0B0
:1036900084FE00E0F6E700BF0AF04AFD70BD0000BE
:1036A00028202020202900001C010020253034641F
:1036B000000000000014004010B5042000F00CF9D8
:1036C000012000F08CF840F22B11002001F074FB77
:1036D00000BF8021134801F006F80028F9D001F05E
:1036E0008DFB042000F0BCF8012000F078F80620E3
:1036F00000F0F2F8012000F072F840F22B110120E6
:1037000001F05AFB00BF4021064800F0ECFF002802
:10371000F9D001F073FB062000F0A2F8012000F0C0
:103720005EF810BD0020014010B5032000F0D4F871
:10373000012000F054F840F22B11002001F03CFB76
:1037400000BF8021134800F0CEFF0028F9D001F01F
:1037500055FB032000F084F8012000F040F805201C
:1037600000F0BAF8012000F03AF840F22B110120E5
:1037700001F022FB00BF4021064800F0B4FF002802
:10378000F9D001F03BFB052000F06AF8012000F0C1
:1037900026F810BD0020014010B50446072000F0B7
:1037A0009BF8012000F01BF8042000F095F80120A0
:1037B00000F015F800F0D6FE2046FFF74BFF00F0B2
:1037C000C3FE042000F04CF8012000F008F80720A8
:1037D00000F046F8012000F002F810BD704710B567
:1037E000044602E0642000F010F82000A4F1010477
:1037F000F8D110BD10B5044602E00A2000F005F82B
:103800002000A4F10104F8D110BD002107E042F628
:10381000E06100BF0A00A1F1010399B2FAD10200F0
:10382000A0F10100F3D1704710B5044601E008F0A3
:1038300033FB2000A4F10104F9D110BD10B5002024
:1038400001F01AFA02A20121084606F01BFB10BD86
:1038500053616D706C655F54657374696E673A008F
:1038600010B50446082C2DD2DFE804F02C040A0F12
:10387000141A20264FF40041144800F03DFF22E0C6
:103880000121134800F038FF1DE00221104800F02C
:1038900033FF18E04FF400610E4800F02DFF12E0F6
:1038A0004FF480510B4800F027FF0CE04FF400511B
:1038B000084800F021FF06E04FF48041054800F081
:1038C0001BFF00E000BF00BF10BD0000001C014056
:1038D000002001400018014010B50446082C2DD2EC
:1038E000DFE804F02C040A0F141A20264FF40041DC
:1038F000144800F003FF22E00121134800F0FEFE0F
:103900001DE00221104800F0F9FE18E04FF40061BC
:103910000E4800F0F3FE12E04FF480510B4800F027
:10392000EDFE0CE04FF40051084800F0E7FE06E021
:103930004FF48041054800F0E1FE00E000BF00BF09
:1039400010BD0000001C0140002001400018014093
:1039500010B54FF4F041064800F0CEFE4FF40041A0
:10396000044800F0C9FE0321034800F0C5FE10BD65
:1039700000180140001C01400020014008B5012151
:103980004FF4E07003F004F910208DF803000320D9
:103990008DF802004FF4F040ADF8000069460A4887
:1039A00000F016FE4FF40040ADF8000069460748ED
:1039B00000F00EFE0320ADF800006946044800F058
:1039C00007FEFFF7C5FF08BD00180140001C0140BD
:1039D0000020014010B5FFF7D1FFFFF7B9FF10BD80
:1039E00051B18200A2F1C042126842F0010382008C
:1039F000A2F1C042136009E08200A2F1C042126845
:103A0000034B1A408300A3F1C0431A6070470000C3
:103A1000FEFF0F00D0E901121143C2681143026991
:103A200011434269114382691143C2691143026A19
:103A30001143426A1143826A1143C26A1143026B05
:103A4000114302689200A2F1C04211608168082906
:103A50000BD101688900A1F1C041096841F0400221
:103A600001688900A1F1C0410A60416B0968426B9D
:103A7000526841EA0211426B926841EA0221426BAC
:103A8000928941EA0241426B128A41EA0251426B39
:103A9000127D41EA0261426B926911430268521C35
:103AA0009200A2F1C0421160C16AB1F5804F1BD1F2
:103AB000816B0968826B526841EA0211826B9268DD
:103AC00041EA0221826B128A41EA0251826B127D25
:103AD00041EA0261826B9269114302689200A2F18D
:103AE000C042C2F8041107E06FF07042016889001B
:103AF000A1F1C041C1F8042170470000F8B50446A7
:103B00000026C0201E490870032048701D49206807
:103B1000FCF7A6FB0746FCF7E0FD80B20A2190FB0C
:103B2000F1F201FB1200052809DA17492068FCF7B9
:103B300097FB0746FCF7D1FD80B2009009E01249DF
:103B40002068FCF78DFB0746FCF7C7FD401C80B2E0
:103B500000900B480099C0F80210011D801C06F06F
:103B600072FA002505E00648405D3044C6B2681C84
:103B7000C5B2052DF7DB0248467102F02BFFF8BDF8
:103B80004E00002000007A440000C84210B5002317
:103B90001A460321D0200BF09FFA02F01BFF0020F1
:103BA0000149087010BD00006C00002010B5002312
:103BB00001220421D0200BF08FFA02F00BFF10BD80
:103BC00010B500231A460421D0200BF085FA02F02C
:103BD00001FF10BD70B505460026D0200E490870C3
:103BE000052048700020887008462988A0F8031036
:103BF000011DC01C06F027FA002405E00648005D00
:103C00003044C6B2601CC4B2052CF7DB02484671D2
:103C100002F0E0FE70BD00004E00002010B504462A
:103C20001848007868BB34B1012C0DD0022C14D098
:103C3000032C24D11AE000231A46194680200BF0E9
:103C40004BFA02F0C7FE1BE000231A460121802038
:103C50000BF042FA02F0BEFE12E000231A460221E7
:103C600080200BF039FA02F0B5FE09E000231A4675
:103C7000032180200BF030FA02F0ACFE00E000BF20
:103C800000BF10BD6C00002010B504461848007835
:103C900068BB34B1012C0DD0022C14D0032C24D1DC
:103CA0001AE000231A46194680200BF015FA02F09C
:103CB000E3FE1BE000231A46012180200BF00CFAE2
:103CC00002F0DAFE12E000231A46022180200BF0F7
:103CD00003FA02F0D1FE09E000231A4603218020F6
:103CE0000BF0FAF902F0C8FE00E000BF00BF10BD03
:103CF0006C00002010B504462148007800283ED111
:103D0000062C3AD2DFE804F0030C151E27300023FE
:103D10000122194680200BF0DFF902F05BFE2DE056
:103D200000230122114680200BF0D6F902F052FE4A
:103D300024E000230122022180200BF0CDF902F0C3
:103D400049FE1BE000230122032180200BF0C4F96F
:103D500002F040FE12E000231A46042180200BF0FE
:103D6000BBF902F037FE09E0002302220421802083
:103D70000BF0B2F902F02EFE00E000BF00BF10BD54
:103D80006C00002010B504461D480078002835D18D
:103D9000052C31D2DFE804F0030C151E27000023A8
:103DA0000122194680200BF097F902F065FE24E00D
:103DB00000230122114680200BF08EF902F05CFEF8
:103DC0001BE000230122022180200BF085F902F084
:103DD00053FE12E000230122032180200BF07CF926
:103DE00002F04AFE09E000231A46042180200BF06D
:103DF00073F902F041FE00BF00BF00BF10BD00001C
:103E00006C00002070B505460026C0200E490870E1
:103E1000042048700020887008462988A0F8031004
:103E2000011DC01C06F00FF9002405E00648005DE6
:103E30003044C6B2601CC4B2052CF7DB02484671A0
:103E400002F0C8FD70BD00004E00002010B5002338
:103E50000122194690200BF03FF902F00DFE0020E0
:103E60000149087010BD00006C00002010B500234F
:103E70001A46194690200BF02FF902F0FDFD0020A4
:103E80000149087010BD00006C0000202DE9F84FBA
:103E900081464FF0000AC020164908700220487081
:103EA0001549D9F80000FCF7DBF90090FCF742FC5B
:103EB00007460022114BFCF743FA0546FCF721FCAC
:103EC00083460C48C0F802B0011D801C06F0BBF808
:103ED000002406E00748005D504400F0FF0A601C23
:103EE000C4B2052CF6DB034880F805A002F072FD91
:103EF000BDE8F88F4E00002000401C460000E03F67
:103F000010B500231A460521B0200BF0E5F802F0A9
:103F100061FD00200149087010BD00006C00002008
:103F200010B5002301221946B0200BF0D5F802F09D
:103F300051FD00200149087010BD00006C000020F8
:103F400010B500231A461946B0200BF0C5F802F050
:103F500093FD00200149087010BD00006C00002096
:103F600010B5002301220421B0200BF0B5F802F0B7
:103F700031FD00200149087010BD00006C000020D8
:103F800010B5002302220621D0200BF0A5F802F084
:103F900021FD00200149087010BD00006C000020C8
:103FA00010B500231A460421B0200BF095F802F05A
:103FB00011FD00200149087010BD00006C000020B8
:103FC00010B500231A460621D0200BF085F802F028
:103FD00053FD00200149087010BD00006C00002056
:103FE00010B5002301220621D0200BF075F802F055
:103FF000F1FC00200149087010BD00006C00002099
:1040000010B5002301221146B0200BF065F802F034
:1040100033FD00200149087010BD00006C00002035
:1040200010B500231A460121B0200BF055F802F01C
:1040300023FD00200149087010BD00006C00002025
:1040400010B5002301220221B0200BF045F802F048
:1040500013FD00200149087010BD00006C00002015
:1040600010B500231A460221B0200BF035F802F0FB
:1040700003FD00200149087010BD00006C00002005
:1040800010B5002301220321B0200BF025F802F027
:10409000F3FC00200149087010BD00006C000020F6
:1040A00010B500231A460321B0200BF015F802F0DA
:1040B000E3FC00200149087010BD00006C000020E6
:1040C00070B505460026C0200E49087008204870CB
:1040D0000020887008462988A0F80310011DC01C24
:1040E00005F0B1FF002405E00648005D3044C6B28B
:1040F000601CC4B2052CF7DB0248467102F06AFC72
:1041000070BD00004E00002070B505460026C0209E
:104110000D49087000204870887008462988A0F86A
:104120000310011DC01C05F08EFF002405E00648A9
:10413000005D3044C6B2601CC4B2052CF7DB0248F7
:10414000467102F047FC70BD4E00002070B5054678
:104150000026C0200E490870072048700020887093
:1041600008462988A0F80310011DC01C05F06BFF4C
:10417000002405E00648005D3044C6B2601CC4B2AD
:10418000052CF7DB0248467102F024FC70BD0000EC
:104190004E00002010B5002301221946A0200AF08D
:1041A0009BFF02F069FC10BD10B500231A461946AA
:1041B000A0200AF091FF02F05FFC00200149087086
:1041C00010BD00006C00002010B500230122114634
:1041D000A0200AF081FF02F04FFC00200149087086
:1041E00010BD00006C00002010B500231A4601210C
:1041F000A0200AF071FF02F03FFC00200149087086
:1042000010BD00006C00002010B500230122022127
:10421000A0200AF061FF02F02FFC00200149087085
:1042200010BD00006C00002010B500231A460221CA
:10423000A0200AF051FF02F01FFC00200149087085
:1042400010BD00006C00002010B5002301220321E6
:10425000A0200AF041FF02F00FFC00200149087085
:1042600010BD00006C00002010B500231A46032189
:10427000A0200AF031FF02F0FFFB00200149087086
:1042800010BD00006C00002010B5002301220421A5
:10429000A0200AF021FF02F0EFFB00200149087086
:1042A00010BD00006C00002010B500231A46042148
:1042B000A0200AF011FF02F0DFFB00200149087086
:1042C00010BD00006C00002070B505460026E020FF
:1042D0000C49087002204870012088700020C870C6
:1042E00028780871002405E00648005D3044C6B215
:1042F000601CC4B2052CF7DB0248467102F06AFB71
:1043000070BD00004E00002070B505460026E0207C
:104310000B4908700520487000208870C870084656
:104320000571002405E00648005D3044C6B2601CFB
:10433000C4B2052CF7DB0248467102F04BFB70BD9E
:104340004E00002010B500231A460221D0200AF0AA
:10435000C3FE02F091FB00200149087010BD00006F
:104360006C00002070B505460026D0200E4908706C
:10437000052048700120887008462988A0F803109D
:10438000011DC01C05F05FFE002405E00648005D2D
:104390003044C6B2601CC4B2052CF7DB024846713B
:1043A00002F018FB70BD00004E0000202DE9FC411A
:1043B00007460D46002600240020009001900820AA
:1043C0005D49086010204860402088600020C86077
:1043D0004FF480600861084604F086FA1020FEF76A
:1043E000D1F9044614B12046BDE8FC815348008849
:1043F0000004514908603720486040208860002050
:10440000C8604FF480600861084604F06DFA3720F8
:10441000FEF7B8F904460CB12046E5E74FF0FF304F
:104420004749086008204860302088600220C86042
:104430000020086101204861084604F0BFF900200F
:104440003D49086033204860402088600020C860F3
:104450004FF480600861084604F046FA3320FEF706
:1044600091F904460CB12046BEE70CE04FF4001071
:1044700004F0D4F938B104F031FA4DF82600761C76
:10448000012E00D906E02F48406B40F22A61084017
:104490000028EBD000BF082004F0C0F928B10820A4
:1044A00004F074F9042420469EE7022004F0B6F9D3
:1044B00028B1022004F06AF90224204694E7202063
:1044C00004F0ACF928B1202004F060F9062420465D
:1044D0008AE74FF4007004F0A1F930B14FF4007096
:1044E00004F054F9072420467EE740F2FF5004F020
:1044F0004DF900980006009901F47F4140EA01203F
:10450000009901F47F0140EA1120009940EA11600E
:10451000686001980006019901F47F4140EA01209A
:10452000019901F47F0140EA1120019940EA1160EC
:104530002860204658E70000C00100200800002045
:10454000D40100200080014010B54FF40041044820
:1045500000F0D2F84FF4FA6005F02AFE10BD00001A
:104560000018014010B54FF40041044800F0C6F8AF
:104570004FF4FA6005F01CFE10BD00000018014069
:1045800008B50121302002F003FB4FF4F850ADF8DC
:10459000000003208DF8020018208DF80300694602
:1045A000094800F015F80420ADF8000069460748F6
:1045B00000F00EF80121880202F0CAFA012102205F
:1045C00002F0C6FA08BD00000010014000140140CE
:1045D0002DE9F0410246002500260020002300249A
:1045E000002791F803C00CF00F0591F803C00CF000
:1045F000100CBCF1000F03D091F802C04CEA050585
:1046000091F800C0BCF1000F31D0146800202BE0FD
:104610004FF0010C0CFA00F3B1F800C00CEA0306ED
:104620009E4220D183004FF00F0C0CFA03F7BC43DD
:1046300005FA03FC4CEA040491F803C0BCF1280F0E
:1046400006D14FF0010C0CFA00FCC2F814C00AE0CD
:1046500091F803C0BCF1480F05D14FF0010C0CFAE2
:1046600000FCC2F810C0401C0828D1D31460B1F877
:1046700000C0BCF1FF0F34DD546800202EE000F1D3
:10468000080C4FF0010808FA0CF3B1F800C00CEA6E
:1046900003069E4221D183004FF00F0C0CFA03F762
:1046A000BC4305FA03FC4CEA040491F803C0BCF1D6
:1046B000280F05D100F1080C08FA0CF8C2F8148094
:1046C00091F803C0BCF1480F07D100F1080C4FF07E
:1046D000010808FA0CF8C2F81080401C0828CED354
:1046E0005460BDE8F0810246002093680B400BB196
:1046F000012000E000207047416170470161704770
:1047000010B50320FFF7E8F80120FFF768F840F242
:104710002B11002000F050FB00BF80211348FFF751
:10472000E2FF0028F9D000F069FB0320FFF798F8BA
:104730000120FFF754F80520FFF7CEF80120FFF71E
:104740004EF840F22B11012000F036FB00BF402153
:104750000648FFF7C8FF0028F9D000F04FFB0520FE
:10476000FFF77EF80120FFF73AF810BD0020014066
:1047700010B504462046FFF7AFF80120FFF72FF8E9
:1047800040F22B11002000F017FB00BF80211448DD
:10479000FFF7A9FF0028F9D000F030FB2046FFF713
:1047A0005FF80120FFF71BF80220FFF795F80120C2
:1047B000FFF715F840F22B11012000F0FDFA00BFC1
:1047C00040210748FFF78FFF0028F9D000F016FBC3
:1047D0000220FFF745F80120FFF701F810BD0000A7
:1047E0000020014010B50420FFF776F80120FEF705
:1047F000F6FF40F22B11002000F0DEFA00BF80210E
:104800001348FFF770FF0028F9D000F0F7FA0420F2
:10481000FFF726F80120FEF7E2FF0520FFF75CF81E
:104820000120FEF7DCFF40F22B11012000F0C4FA5A
:1048300000BF40210648FFF756FF0028F9D000F0DE
:10484000DDFA0520FFF70CF80120FEF7C8FF10BDC8
:1048500000200140F0B58DB004463022224901A865
:10486000FBF782FC6069451E642195FBF1F1284647
:10487000EA1705EB9272C1EBA2014FF4C87295FBE7
:10488000F2F28F186069C11700EB91718910A0EBEB
:10489000810191B96422616991FBF2F302FB13116A
:1048A00031B99200616991FBF2F302FB131121B956
:1048B0002169022901DD012600E0002640F26D1089
:1048C00005FB00712069401E01AA52F8200008442F
:1048D000E16808440644072096FBF0F100FB1160F4
:1048E000A0610DB0F0BD000010A2030800BFFEE7FC
:1048F00010B51E480088FBF7B4FE04461C4801684A
:104900002046FBF777FF2FD20A20FEF768FF184AF0
:1049100018491948FCF7B8FE14480088FBF7A1FEB7
:104920000446134801682046FBF764FF1CD20020B0
:1049300000F0A2F911A20121062005F0A3FA13A2AA
:104940000321084605F09EFA17A20521042005F070
:1049500099FA07E01A480078042803D1FF20184983
:10496000087000E0F6E700BF10BD000092000020D4
:1049700088000020840000208C00002048756D69AC
:1049800064697479206661756C742100506C65618E
:104990007365207265706C61636520647279207044
:1049A00069706521000000005072657373205255D4
:1049B0004E204B657920746F205265616479000048
:1049C0003400002010B507F0A5FD08B900BFFEE7D0
:1049D00010BD000010B50446052C39D2DFE804F004
:1049E000030C15222F0004211B48FFF787FE182116
:1049F0001948FFF781FE2CE004211748FFF77CFEE1
:104A000018211548FFF778FE23E004211248FFF72C
:104A100073FE08211048FFF771FE10210E48FFF7C2
:104A20006BFE16E004210C48FFF766FE08210A48D9
:104A3000FFF762FE10210848FFF760FE09E004213D
:104A40000548FFF759FE18210348FFF757FE00E01D
:104A500000BF00BF10BD00000020014010B54FF4A2
:104A600080610448FFF73FFE012801D1002010BDFE
:104A70000120FCE70014014010B54FF40061044828
:104A8000FFF731FE012801D1002010BD0120FCE715
:104A90000014014010B54FF400710448FFF723FEE5
:104AA000012801D1002010BD0120FCE700140140C5
:104AB00010B54FF400510448FFF715FE012801D14D
:104AC000002010BD0120FCE70014014010B54FF498
:104AD00080710448FFF707FE012801D1002010BDB6
:104AE0000120FCE70014014010B54FF48051044848
:104AF000FFF7F9FD012801D1002010BD0120FCE7DE
:104B00000014014000B597B00121080202F020F81E
:104B10000020019002900390049005900790089067
:104B200009904FF480500A9000200B900C900D904B
:104B300002201090119007201290012013901490E1
:104B4000022015900020169010A80E900F9001A83A
:104B5000FEF760FF01210020FEF742FF17B000BD05
:104B600010B500F021F840220021084600F0BDF801
:104B7000412200211E2000F0B8F842220821002026
:104B800000F0B3F8432200211E2000F0AEF8A02070
:104B900000F095F8802000F092F89C2000F08FF84B
:104BA000002000F069F810BD10B500F003F8FFF721
:104BB000A9FF10BD08B50121080201F0C9FF0121BC
:104BC00040F2F91001F0E4FF10208DF803000320FB
:104BD0008DF802004020ADF8000069461A48FFF742
:104BE000F7FC03208DF8020018208DF803004CF22A
:104BF0000300ADF8000069461448FFF7E9FC4FF4E4
:104C0000F060ADF8000069461148FFF7E1FC1020A4
:104C1000ADF8000069460D48FFF7DAFC2020ADF83A
:104C2000000069460948FFF7D3FC8020ADF800007A
:104C300069460648FFF7CCFC0120ADF80000694644
:104C40000448FFF7C5FC08BD0010014000140140F6
:104C500000180140001C014010B540210448FFF736
:104C60004BFD4FF400510348FFF746FD10BD000017
:104C700000180140001C014070B504464FF4005577
:104C80003CB1A5F5006524220821002000F02DF894
:104C900004E024220021084600F027F8B02000F0AC
:104CA0000EF804E0FDF73CFC204600F031F8280047
:104CB000A5F10105F6D1B22000F001F870BD00B5F4
:104CC000024605F0B7F9104605F036FA00BD00B50A
:104CD00003460A4605F0AEF9184605F031FA05F02C
:104CE000A9F9104605F028FA00BD10B504460B4698
:104CF00005F0A0F9204605F023FA05F09BF91846C7
:104D000005F01EFA05F096F9104605F015FA10BDEB
:104D100000B50246104605F013FA00BD2DE9F0413A
:104D200005460E4617461E2000FB06540FB104F53B
:104D30000064E0B22422C4F30721FFF7D6FFBDE8E8
:104D4000F081000000B506F03BFB034613B3022BD5
:104D500003D100201649087028E0042B03D101205C
:104D60001349087022E0062B03D102201049087075
:104D70001CE0092B03D103200D49087016E00C2B11
:104D800003D104200A49087010E00E2B03D105203E
:104D9000074908700AE0052B03D106200449087072
:104DA00004E0082B02D107200149087000BD000073
:104DB0003400002000BFFEE770B505460C462DB953
:104DC0004FF480710C48FFF797FC05E0012D03D1EB
:104DD00029020948FFF792FC4FF080408485204665
:104DE00004EBD071C1F34F014FF080429187012154
:104DF000880705F0D2FA70BD0020014010B50021EF
:104E00004FF0804005F0C9FA40F2DC5005F0D0F9CF
:104E100010BD10B500F004F805F097F910BD0000C2
:104E200008B50121084601F0A3FE01214FF48A7064
:104E300001F0AEFE4FF48070ADF8000010208DF848
:104E4000030003208DF8020069460F48FFF7C0FBFE
:104E50004020ADF8000028208DF8030069460A487C
:104E6000FFF7B6FB8020ADF8000069460648FFF763
:104E7000AFFB0420ADF8000018208DF80300694650
:104E80000248FFF7A5FB08BD0020014000080140D3
:104E9000704708B54FF4806000F050F8684600F0A5
:104EA00015F808BD08B54FF4C06000F047F8312090
:104EB0008DF8000000208DF801008DF8020001201F
:104EC0008DF80300684600F001F808BD70B50021B8
:104ED00000230F22C47804B3154C246804F4E06462
:104EE000C4F5E064210AC1F10403CA40447804FA1D
:104EF00003F184781440214309010E4C0678A15532
:104F0000047804F01F050124AC4005786D11AD0054
:104F100005F1E025C5F8004109E0047804F01F051B
:104F20000124AC40044D0678761145F8264070BD4A
:104F30000CED00E000E400E080E100E00249014304
:104F4000024A1160704700000000FA050CED00E015
:104F50002DE9F04105468846002404E00020094977
:104F60000855601CC4B2102CF8DB2846FBF7E2FBA6
:104F7000064632460B464146024805F039FD0148D7
:104F8000BDE8F0817C27002070B505460E46002460
:104F900004E0002006490855601CC4B2102CF8DB60
:104FA0002A463146024805F023FD014870BD000045
:104FB0007C27002010B5002408F0DCF907E0601C15
:104FC00084B20120FEF716FC962C00DD03E02C488D
:104FD00000780028F3D000BF2948007801283BD191
:104FE00000202749087027480078A8BB2648007889
:104FF000992804D0BB2814D0EE2824D11CE000202E
:1050000021490870012021490870AD21204805F090
:10501000D8FC00BF40211E4805F006FC0028F9D04E
:1050200019E000201849087001201A490870402131
:105030001948FFF763FB0EE00020134908700120B8
:105040001649087007E000201249087040211248F4
:10505000FFF752FB00BF00BF0E480078012805D1C2
:105060000FA201211A2004F00DFF04E00EA201217D
:105070001A2004F007FF00200249087010BD00004C
:105080005A0000205B000020A002002090000020B9
:105090000038014054000020001801405600002054
:1050A000282A2A29000000002020202000000000DB
:1050B00010B50720FEF710FC0120FEF790FB022040
:1050C000FEF70AFC0120FEF78AFBFFF74BFA10BD42
:1050D00010B50120FEF700FC0120FEF780FB072041
:1050E000FEF7FAFB0120FEF77AFBFFF73BFA10BD53
:1050F00010B52548007820281BD123484078C0B936
:1051000021488078A8B92048C07890B91E48007915
:1051100078B91D48407920280BD101F04BFC0A20BA
:10512000FEF768FB01201949087000201849087033
:1051300028E01548007820281CD113484078012821
:1051400018D111488078A8B90F48C07890B90E4896
:10515000007978B90C48407921280BD101F02AFC5C
:105160000A20FEF747FB0120084908700220084981
:10517000087007E001F0D0FC0520FEF73BFB0020A3
:105180000249087010BD0000A00200205900002054
:105190003400002010B532480078E0285DD1304856
:1051A00000782F49497808442D49897808442C49CA
:1051B000C97808442A4909790844C0B2284949797C
:1051C000884247D126484078062835D2DFE800F0EB
:1051D00003340E16212F224800792149C9784FF453
:1051E000807202FB01001F49088026E01C480079FC
:1051F0001D49087001201D4908701EE018480079FB
:105200001749C9784FF4807202FB010018490880E1
:1052100013E0134800791249C9784FF4807202FBF9
:1052200001001449088001201349087005E00C486A
:1052300000791249087000E000BF00BF002404E0BC
:10524000002007490855601CC4B2062CF8DB01F0A9
:10525000B1FB04E001F060FC01E001F05DFC10BD79
:10526000A0020020420000208300002097000020C0
:105270004600002048000020980000209A000020EE
:10528000014908627047000000000E4210B5FFF7A8
:105290001FFF1E20FEF7DEF906F0D4FA10BD10B590
:1052A000FFF706FF0A20FEF7D5F9FDF745FA10BD16
:1052B00010B5FFF70DFF6420FEF7CCF906F0C2FA37
:1052C00010BD00002DE9F04101240125AD48007812
:1052D000012873D10DE0FF20AB4908700120AB49D4
:1052E000087008F0C3FC42F21070FEF78EFABDE8B9
:1052F000F081002009F0F2F90028ECD0012009F03B
:10530000EDF90028E7D0022009F0E8F90028E2D002
:105310009F480088401C9E49088002220A219C4820
:1053200007F03BF99B480078012801D104F0FAF816
:105330000020FFF7A1FC98A20121002004F0A2FDAB
:105340009EA20421022004F09DFDA0A12046FFF7AB
:105350001BFE07463A4604210E2004F093FD9DA251
:105360000721052004F08EFD212204211020FFF7E3
:10537000BCFC9F20FFF7A3FC43E0834890F90000AA
:10538000012806D005282CD0062806D007282CD1C5
:1053900015E0FF207C49087027E0FF207A4908705B
:1053A0000CB1601EC4B289A12046FFF7EDFD07468F
:1053B0003A4604210E2004F065FD16E0D9E0FF20F6
:1053C00071490870FF2C01D0601CC4B27FA1204637
:1053D000FFF7DAFD07463A4604210E2004F052FD9D
:1053E00003E0FF206849087000BF00BF66480078EE
:1053F000042806D1FF20644908709C20FFF75FFC59
:1054000000E0BAE700BF0020FFF736FC78A20121D8
:10541000002004F037FD7FA20421022004F032FDB9
:105420006AA12846FFF7B0FD07463A4604210E2040
:1054300004F028FD67A20721052004F023FD2122A6
:1054400004211020FFF751FC9F20FFF738FC42E0B9
:105450004D4890F90000012806D005282BD00628D9
:1054600006D007282BD114E0FF204749087026E01A
:10547000FF20454908700DB1681EC5B253A12846EA
:10548000FFF782FD07463A4604210E2004F0FAFC9D
:1054900015E0FF203C490870FF2D01D0681CC5B203
:1054A0004AA12846FFF770FD07463A4604210E2020
:1054B00004F0E8FC03E0FF203349087000BF00BFA0
:1054C00031480078042806D1FF202F4908709C201D
:1054D000FFF7F5FB00E0BBE700BF0020FFF7CCFBC8
:1054E00050A20321022004F0CDFC38A12046FFF792
:1054F0004BFD07463A4603210A2004F0C3FC33A1C2
:105500002846FFF741FD07463A4603210E2004F0E6
:10551000B9FC002603E0FFF7F3F8701CC6B2A64200
:10552000F9DB002603E0FFF75DF9701CC6B2AE425E
:10553000F9DB0020FFF7A0FB3FA20321022004F0CB
:10554000A1FCFBF725FE00BF002009F0C7F80028EA
:10555000FAD1012009F0C2F80028F5D1022009F0A3
:10556000BDF80028F0D10B480078012801D103F0E4
:10557000D9FF012005490870FF200349087000BFCA
:10558000B5E6000057000020340000200000002095
:105590004400002054000020707265737320555041
:1055A000206F7220444E20746F2073657420494E22
:1055B0005055545F425F4741533A0000494E5055A1
:1055C000545F425F4741533A000000002530336486
:1055D0000000000070726573732052554E2F5345C2
:1055E0005420746F20636F6E74696E7565000000DF
:1055F0007072657373205550206F7220444E207472
:105600006F2073657420494E5055545F5A5F47416F
:10561000533A0000494E5055545F5A5F4741533A40
:10562000000000004741532A2A2A28202020203A3F
:1056300020202020290000004741535F4F4B0000ED
:105640007047000010B50420FEF746F90120FEF770
:10565000C6F840F22B110020FFF7AEFB00BF8021FF
:105660001348FFF740F80028F9D0FFF7C7FB0420E4
:10567000FEF7F6F80120FEF7B2F80220FEF72CF94B
:105680000120FEF7ACF840F22B110120FFF794FB4C
:1056900000BF40210648FFF726F80028F9D0FFF7A1
:1056A000ADFB0220FEF7DCF80120FEF798F810BDF4
:1056B0000020014000B5BDB04FF4FA7027900020E3
:1056C0001F901E901D901C901B901A9019900DE039
:1056D0000120F949087008F0C9FA42F21070FEF78B
:1056E00094F8FF20F54908703DB000BD002008F097
:1056F000F5FF0028ECD0012008F0F0FF0028E7D0EB
:10570000022008F0EBFF0028E2D0032008F0E6FFBB
:105710000028DDD0EA48007801285BD1FEF75FF869
:105720000020399006E03998FEF7E4FA3998401CD9
:10573000C0B2399039980428F5DB0520FEF7DAFA73
:105740000120FEF757F8DE48007820B905F006F88A
:105750000020DC490870DB48007801283AD131E0AC
:105760001998401C80B21990D7480078012804D1BC
:105770000020D5490870FFF70DFDD44800780128B6
:1057800006D10020D14908700520FEF733F81DE04E
:105790000120FEF72FF81998B0F57A7F11D100207B
:1057A00019901B98401CC0B21B901B98032802DA6A
:1057B00001F0B2F906E004F0D1FF0021C148017008
:1057C00004E000BFBE4800780028C9D100BFC0482F
:1057D00000882790BF480088401CBE4908800222EC
:1057E0000A21BC4806F0D9FEB648007800287DD1D1
:1057F00008F0ECF95AE0B14890F90000012806D011
:10580000052835D0062803D0072835D117E033E026
:10581000FF20AA490870B048008820B1AE4800882F
:10582000401EAD490880ADA1AB480088FFF7ACFB36
:105830000246032113900C2004F024FB1CE0FF20FF
:105840009E490870A4480088B0F57A7F04D0A24829
:105850000088401CA0490880A0A19F480088FFF74D
:1058600093FB0246032113900C2004F00BFB03E092
:10587000FF209249087000BF00BF904800780428BC
:1058800006D1FF208D4908709C20FFF718FA0EE022
:105890008A480078012809D1FF20884908709C2097
:1058A000FFF70DFA0120844908701DE7A3E700BF48
:1058B0000020FFF7E1F98BA20121002004F0E2FAB9
:1058C00091A20321022004F0DDFA92A20721052013
:1058D00004F0D8FA96A12798FFF756FB0246032159
:1058E00013900E2004F0CEFA9F2000E053E0FFF763
:1058F000E6F9212203211120FFF7F7F949E06F486B
:1059000090F90000012806D0052832D0062806D0DC
:10591000072832D117E0FF20684908702DE0FF20EA
:1059200066490870279818B12798401E80B22790C2
:105930007FA12798FFF728FB0246032113900E2032
:1059400004F0A0FA19E0FF205C4908702798B0F530
:105950007A7F03D02798401C80B2279074A12798A3
:10596000FFF712FB0246032113900E2004F08AFA7F
:1059700003E0FF205149087000BF00BF4F48007886
:10598000042806D1FF204D4908709C20FFF797F9A5
:1059900000E0B4E700BF68480078012808D14E480D
:1059A000018866A005F014F869A0279905F010F8A1
:1059B0000020FFF761F942480078012804D1052052
:1059C000FDF718FFFEF7BCFA65A20121084604F0B6
:1059D00059FA68A20321012004F054FA6BA20321B2
:1059E000142004F04FFA6C4A6C496D48FBF74CFEEA
:1059F0006B480068FAF79EFE02460B46CDE910019F
:105A00004FF000406749FAF7B4FDCDE91201FAF70B
:105A100078FE654908804848007801281AD1604816
:105A20000068FAF787FE02460B46CDE912015FA037
:105A300004F0CEFF59480068FAF77CFE02460B4698
:105A4000CDE912015DA004F0C3FF574801885FA0B3
:105A500004F0BEFFC820FDF79FFE00203A90F6E359
:105A60000020FFF709F95EA20121084604F00AFAB6
:105A700061A13A98401CFFF787FA02460121139072
:105A8000162004F0FFF95EA20321012004F0FAF9C8
:105A90003EA20321142004F0F5F9094800780128FA
:105AA00007D13A9820B1012804D0022803D1B9E0E7
:105AB000B2E0BCE0B3E0B8E0000000203400002019
:105AC000540000205900002096000020980000207B
:105AD00048000020440000204600002025303664A5
